:100000000C9446000C9465000C9465000C946500FB
:100010000C9465000C9465000C9465000C946500CC
:100020000C9465000C9465000C9465000C946500BC
:100030000C9465000C940C010C9465000C94650004
:100040000C9465000C9465000C9465000C9465009C
:100050000C9465000C9465000C9465000C9465008C
:100060000C9465000C9465000C9465000C9465007C
:100070000C9465000C9465000C9465000C9465006C
:100080000C9465000C9465000C94650011241FBE4F
:10009000CFEFD0E4DEBFCDBF11E0A0E0B1E0E4E6F9
:1000A000F9E000E00BBF02C007900D92A83AB1073B
:1000B000D9F721E0A8EAB1E001C01D92A53BB20743
:1000C000E1F70E94EE020C94B0040C940000CF9370
:1000D000DF9300D01F92CDB7DEB789837B836A831D
:1000E00089818A3031F48A819B81BC018DE00E9434
:1000F000670080EC90E0FC018081882F90E08072A6
:100100009927892BB1F386EC90E02981FC012083AB
:1001100080E090E00F900F900F90DF91CF910895C5
:10012000CF93DF9300D000D0CDB7DEB769837A8359
:100130008B839C8389819A81AB81BC8180930E01E2
:1001400090930F01A0931001B093110180910E01C3
:1001500090910F01A0911001B09111018093A9011C
:100160009093AA01A093AB01B093AC0100000F9053
:100170000F900F900F90DF91CF910895CF93DF9361
:10018000CDB7DEB781E890E02BE0FC01208388E862
:1001900090E02DE730E0FC01318320838FE690E092
:1001A00022E0FC01208384E890E0FC0111821082AF
:1001B00080910E0190910F01A0911001B091110159
:1001C0008093A9019093AA01A093AB01B093AC01D5
:1001D0008FE590E02FE530E0F90120812068FC01F7
:1001E00020830000DF91CF910895CF93DF93CDB7A7
:1001F000DEB781E890E0FC0110820000DF91CF9132
:100200000895CF93DF93CDB7DEB781E08093A80147
:100210000000DF91CF9108951F920F9200905F0030
:100220000F92112400905B000F922F933F934F93F6
:100230005F936F937F938F939F93AF93BF93EF934E
:10024000FF93CF93DF93CDB7DEB78091A901909153
:10025000AA01A091AB01B091AC010197A109B1092C
:100260008093A9019093AA01A093AB01B093AC0134
:100270008091A9019091AA01A091AB01B091AC012C
:10028000892B8A2B8B2B91F40E94010180910E0106
:1002900090910F01A0911001B09111018093A901DB
:1002A0009093AA01A093AB01B093AC010000DF9141
:1002B000CF91FF91EF91BF91AF919F918F917F91DE
:1002C0006F915F914F913F912F910F9000925B0042
:1002D0000F9000925F000F901F9018950F931F933F
:1002E000CF93DF9300D000D0CDB7DEB769837A8398
:1002F0008B839C838091AD019091AE01A091AF0161
:10030000B091B0019C01AD0169817A818B819C81A2
:100310000E941C03882309F477C020E030E0A90183
:1003200069817A818B819C810E941C03882351F40E
:1003300081E990E021E930E0F90120812870FC0199
:10034000208309C081E990E021E930E0F9012081B2
:100350002360FC01208328E539E344E75FE36981FA
:100360007A818B819C810E941C03882344F488E954
:1003700090E02FEF3FEFFC013183208334C020E079
:1003800034E244EF56E469817A818B819C810E943A
:100390003E04181634F488E990E0FC0111821082C2
:1003A00022C008E910E020E030E040E053E4698139
:1003B0007A818B819C810E944304DC01CB019C01EA
:1003C000AD0160E074E284EF9AE40E942103DC0155
:1003D000CB01BC01CD010E949303DC01CB0101974D
:1003E000F8019183808384E990E0FC0111821082FE
:1003F00089819A81AB81BC818093AD019093AE01DC
:10040000A093AF01B093B00100000F900F900F9038
:100410000F90DF91CF911F910F910895CF93DF93AC
:10042000CDB7DEB780E990E020E4FC01208381E9CC
:1004300090E02BE0FC01208360E070E0CB010E94A3
:100440006E010000DF91CF910895CF93DF93CDB778
:10045000DEB780E990E0FC01108281E990E0FC01C8
:1004600010820000DF91CF910895CF93DF9300D0E9
:10047000CDB7DEB78091B3019091B4018130910581
:1004800081F08130910530F08230910511F10397B0
:1004900091F145C081E090E09093B4018093B30165
:1004A0003EC080E290E0FC018081882F90E0817066
:1004B0009927892B39F482E090E09093B4018093DE
:1004C000B3012DC081E090E09093B4018093B3011B
:1004D00026C08091B201893138F482E090E0909397
:1004E000B4018093B3011BC083E090E09093B4010A
:1004F0008093B30114C080E290E0FC018081882FDA
:1005000090E081709927892B19F081E090E002C07A
:1005100083E090E09093B4018093B3010000809158
:10052000B3019091B4018130910559F0813091056A
:1005300008F44DC08230910571F0039709F441C071
:1005400047C01092B1011092B20160E070E0CB019F
:100550000E946E013DC01A82198218C08091B201BA
:10056000882F90E0880F991F880F991F8E5E9E4FED
:10057000FC0180819181A281B381BC01CD010E94E7
:100580006E0189819A8101969A8389838091B10154
:10059000882F90E0880F991F8A589E4FFC01208178
:1005A000318189819A8182179307C0F28091B101CC
:1005B0008F5F8093B1018091B2018F5F8093B20110
:1005C00007C060E070E0CB010E946E0101C0000036
:1005D00000000F900F90DF91CF910895CF93DF939C
:1005E000CDB7DEB781E290E0FC01108282E290E0BC
:1005F0002FEFFC01208384E290E020E4FC012083C3
:1006000085E290E0FC0110826AEF70E080E090E00B
:100610000E9490000E94BE000E940E021092B4013F
:100620001092B3010E94350200008091A801882336
:10063000E1F31092A801F6CF0E94C90308F481E00B
:1006400008950E9435030C9404040E94FD0358F0A1
:100650000E94F60340F029F45F3F29F00C94ED036B
:1006600051110C9438040C94F3030E94150468F3A0
:100670009923B1F3552391F3951B550BBB27AA275B
:1006800062177307840738F09F5F5F4F220F331F95
:10069000441FAA1FA9F335D00E2E3AF0E0E832D05D
:1006A00091505040E695001CCAF72BD0FE2F29D060
:1006B000660F771F881FBB1F261737074807AB0732
:1006C000B0E809F0BB0B802DBF01FF2793585F4FA7
:1006D0003AF09E3F510578F00C94ED030C943804E9
:1006E0005F3FE4F3983ED4F3869577956795B79589
:1006F000F7959F5FC9F7880F911D9695879597F994
:100700000895E1E0660F771F881FBB1F621773070C
:100710008407BA0720F0621B730B840BBA0BEE1F21
:1007200088F7E09508950E949A036894B1110C949B
:10073000380408950E941D0488F09F5798F0B92F3F
:100740009927B751B0F0E1F0660F771F881F991F06
:100750001AF0BA95C9F714C0B13091F00E9437046D
:10076000B1E008950C943704672F782F8827B85F7D
:1007700039F0B93FCCF3869577956795B395D9F75E
:100780003EF490958095709561957F4F8F4F9F4F68
:100790000895990F0008550FAA0BE0E8FEEF161612
:1007A0001706E807F907C0F012161306E407F50765
:1007B00098F0621B730B840B950B39F40A2661F0D9
:1007C000232B242B252B21F408950A2609F4A1407C
:1007D000A6958FEF811D811D089597F99F6780E889
:1007E00070E060E008959FEF80EC089500240A9483
:1007F0001616170618060906089500240A941216FC
:100800001306140605060895092E0394000C11F42E
:10081000882352F0BB0F40F4BF2B11F460FF04C0DB
:100820006F5F7F4F8F4F9F4F089557FD9058440F34
:10083000551F59F05F3F71F04795880F97FB991F3F
:1008400061F09F3F79F087950895121613061406FC
:10085000551FF2CF4695F1DF08C016161706180689
:10086000991FF1CF86957105610508940895E89464
:10087000BB2766277727CB0197F908950E94C90304
:1008800008F48FEF08950E9456040C9404040E940B
:10089000F60338F00E94FD0320F0952311F00C942C
:1008A000ED030C94F30311240C9438040E941504F6
:1008B00070F3959FC1F3950F50E0551F629FF001B3
:1008C000729FBB27F00DB11D639FAA27F00DB11DCC
:1008D000AA1F649F6627B00DA11D661F829F222755
:1008E000B00DA11D621F739FB00DA11D621F839FDC
:1008F000A00D611D221F749F3327A00D611D231FB2
:10090000849F600D211D822F762F6A2F11249F57FF
:1009100050409AF0F1F088234AF0EE0FFF1FBB1F02
:10092000661F771F881F91505040A9F79E3F5105C1
:1009300080F00C94ED030C9438045F3FE4F3983E90
:10094000D4F3869577956795B795F795E7959F5F6B
:10095000C1F7FE2B880F911D9695879597F90895FD
:04096000F894FFCF39
:100964000000000200000000670000000000010019
:100974000000A4D0A443000000007BD492430000F4
:100984000000A4D08243000000007BD49243000006
:100994000000A4D0A44300000000A4D0A44300009D
:1009A4000000A4D0A44300000000A4D0A44300008D
:1009B40000007BD49243000000007BD492430000EB
:1009C4000000A4D0A443000000007BD492430000A4
:1009D4000000A4D08243180001000C0001000C00A8
:1009E40001000C0001000C0001000C0001001800C3
:1009F40001000C0001000C0001000C0001000C00BF
:080A040001000C0001001800C4
:00000001FF
