:100000000C9446000C9465000C9465000C946500FB
:100010000C9465000C9465000C9465000C946500CC
:100020000C9465000C9465000C9465000C946500BC
:100030000C9465000C9465000C9465000C946500AC
:100040000C9465000C9465000C9465000C9465009C
:100050000C9465000C9465000C9465000C9465008C
:100060000C9465000C9465000C9465000C9465007C
:100070000C9465000C9465000C9465000C9465006C
:100080000C9465000C9465000C94650011241FBE4F
:10009000CFEFD0E4DEBFCDBF11E0A0E0B1E0E8E6F5
:1000A000F8E000E00BBF02C007900D92AE32B1073E
:1000B000D9F721E0AEE2B1E001C01D92A633B2074C
:1000C000E1F70E947F020C9432040C940000CF935D
:1000D000DF9300D01F92CDB7DEB789837B836A831D
:1000E00089818A3031F48A819B81BC018DE00E9434
:1000F000670080EC90E0FC018081882F90E08072A6
:100100009927892BB1F386EC90E02981FC012083AB
:1001100080E090E00F900F900F90DF91CF910895C5
:100120000F931F93CF93DF9300D000D0CDB7DEB7EE
:1001300069837A838B839C8380912F019091300116
:10014000A0913101B09132019C01AD0169817A81A8
:100150008B819C810E949E02882309F477C020E055
:1001600030E0A90169817A818B819C810E949E0285
:10017000882351F481E990E021E930E0F901208100
:100180002870FC01208309C081E990E021E930E07A
:10019000F90120812360FC01208328E539E344E74D
:1001A0005FE369817A818B819C810E949E02882312
:1001B00044F488E990E02FEF3FEFFC013183208386
:1001C00034C020E034E244EF56E469817A818B81C7
:1001D0009C810E94C003181634F488E990E0FC0169
:1001E0001182108222C008E910E020E030E040E0F7
:1001F00053E469817A818B819C810E94C503DC0173
:10020000CB019C01AD0160E074E284EF9AE40E94AE
:10021000A302DC01CB01BC01CD010E941503DC016E
:10022000CB010197F8019183808384E990E0FC0180
:100230001182108289819A81AB81BC8180932F01C8
:1002400090933001A0933101B093320100000F90E0
:100250000F900F900F90DF91CF911F910F91089504
:10026000CF93DF93CDB7DEB780E990E020E4FC01C7
:10027000208381E990E02BE0FC01208360E070E0C6
:10028000CB010E9490000000DF91CF910895CF93A1
:10029000DF93CDB7DEB780E990E0FC01108281E901
:1002A00090E0FC0110820000DF91CF910895CF9380
:1002B000DF93CDB7DEB78091340190913501823064
:1002C000910509F45BC08330910528F4009779F01B
:1002D0000197A1F07EC08430910509F45DC084309F
:1002E000910508F452C0059709F45DC072C081E021
:1002F00090E090933501809334016BC080E290E0F0
:10030000FC018081882F90E08095909587709927D7
:10031000019739F484E090E09093350180933401A3
:1003200058C080E290E0FC018081882F90E08095A9
:10033000909587709927029739F482E090E0909326
:1003400035018093340145C080E290E0FC0180815A
:10035000882F90E08095909587709927049739F4BD
:1003600083E090E0909335018093340132C081E0C6
:1003700090E090933501809334012BC085E090E0AC
:10038000909335018093340124C085E090E09093F0
:100390003501809334011DC085E090E090933501D4
:1003A0008093340116C080E290E0FC018081882FA8
:1003B00090E08095909587709927892B19F481E0BA
:1003C00090E002C085E090E0909335018093340185
:1003D0000000809134019091350182309105B9F08F
:1003E0008330910530F4009779F0019709F47AC0D1
:1003F00082C08430910509F44EC08430910548F1E3
:10040000059709F471C077C01092330174C08091D0
:100410002E01873028F480912E018F5F80932E016A
:1004200080913301813009F061C080912E01882FC5
:1004300090E0880F991F880F991F825F9E4FFC01E3
:1004400080819181A281B381BC01CD010E94900085
:100450004DC080912E01882329F080912E0181507A
:1004600080932E0180913301813009F041C0809149
:100470002E01882F90E0880F991F880F991F825FA7
:100480009E4FFC0180819181A281B381BC01CD018D
:100490000E9490002DC0809133018823B9F480918F
:1004A0002E01882F90E0880F991F880F991F825F77
:1004B0009E4FFC0180819181A281B381BC01CD015D
:1004C0000E94900081E08093330114C08091330139
:1004D000813081F460E070E0CB010E9490001092C6
:1004E000330108C0000007C0000005C0000003C0C1
:1004F000000001C000000000DF91CF910895CF936C
:10050000DF93CDB7DEB781E290E0FC01108282E29A
:1005100090E02FEFFC01208384E290E020E4FC01D6
:10052000208385E290E0FC0110820E94300110924D
:100530003501109234010E945701FDCF0E944B03F8
:1005400008F481E008950E94B7020C9486030E948B
:100550007F0358F00E94780340F029F45F3F29F0B0
:100560000C946F0351110C94BA030C9475030E9400
:10057000970368F39923B1F3552391F3951B550B1A
:10058000BB27AA2762177307840738F09F5F5F4F66
:10059000220F331F441FAA1FA9F335D00E2E3AF0A5
:1005A000E0E832D091505040E695001CCAF72BD0BD
:1005B000FE2F29D0660F771F881FBB1F261737070E
:1005C0004807AB07B0E809F0BB0B802DBF01FF2740
:1005D00093585F4F3AF09E3F510578F00C946F03AB
:1005E0000C94BA035F3FE4F3983ED4F38695779575
:1005F0006795B795F7959F5FC9F7880F911D9695F9
:10060000879597F90895E1E0660F771F881FBB1F54
:10061000621773078407BA0720F0621B730B840B01
:10062000BA0BEE1F88F7E09508950E941C036894AA
:10063000B1110C94BA0308950E949F0388F09F574C
:1006400098F0B92F9927B751B0F0E1F0660F771FF6
:10065000881F991F1AF0BA95C9F714C0B13091F0EC
:100660000E94B903B1E008950C94B903672F782F65
:100670008827B85F39F0B93FCCF3869577956795B1
:10068000B395D9F73EF490958095709561957F4F1D
:100690008F4F9F4F0895990F0008550FAA0BE0E860
:1006A000FEEF16161706E807F907C0F01216130634
:1006B000E407F50798F0621B730B840B950B39F474
:1006C0000A2661F0232B242B252B21F408950A26DA
:1006D00009F4A140A6958FEF811D811D089597F91A
:1006E0009F6780E870E060E008959FEF80EC0895D8
:1006F00000240A9416161706180609060895002401
:100700000A9412161306140605060895092E03947A
:10071000000C11F4882352F0BB0F40F4BF2B11F4EE
:1007200060FF04C06F5F7F4F8F4F9F4F089557FD4D
:100730009058440F551F59F05F3F71F04795880F4F
:1007400097FB991F61F09F3F79F0879508951216E6
:1007500013061406551FF2CF4695F1DF08C0161692
:1007600017061806991FF1CF869571056105089443
:100770000895E894BB2766277727CB0197F908955A
:100780000E944B0308F48FEF08950E94D8030C9445
:1007900086030E94780338F00E947F0320F095239F
:1007A00011F00C946F030C94750311240C94BA038C
:1007B0000E94970370F3959FC1F3950F50E0551F6A
:1007C000629FF001729FBB27F00DB11D639FAA27A6
:1007D000F00DB11DAA1F649F6627B00DA11D661FF5
:1007E000829F2227B00DA11D621F739FB00DA11D16
:1007F000621F839FA00D611D221F749F3327A00DD0
:10080000611D231F849F600D211D822F762F6A2F6B
:1008100011249F5750409AF0F1F088234AF0EE0FD0
:10082000FF1FBB1F661F771F881F91505040A9F7FD
:100830009E3F510580F00C946F030C94BA035F3F08
:10084000E4F3983ED4F3869577956795B795F79539
:10085000E7959F5FC1F7FE2B880F911D96958795B1
:0808600097F90895F894FFCF09
:100868000000000200000000670000000000A4D0A3
:1008780082437BD49243A4D0A443719DAE4300002D
:0E088800C4430000DC43A4F0F64300D0024459
:00000001FF
